:020000040800F2
:1000000088060020890100084909000853040008F7
:100010004509000843020008011300080000000021
:10002000000000000000000000000000450D000876
:100030004702000800000000010D0008310E000812
:10004000A3010008A3010008A3010008A301000800
:10005000A3010008A301000849020008B10200083A
:10006000A3010008A3010008A3010008A3010008E0
:10007000A3010008A3010008A3010008A3010008D0
:10008000A3010008A3010008A3010008A3010008C0
:10009000A3010008A3010008A3010008A3010008B0
:1000A000A3010008A3010008A3010008A3010008A0
:1000B000AD0F0008A3010008A3010008A301000878
:1000C000A3010008A3010008A3010008A301000880
:1000D000A30100084D120008A3010008A3010008B5
:1000E0007D020008A3010008A301000800F002F847
:1000F00000F03AF80AA090E8000C82448344AAF188
:100100000107DA4501D100F02FF8AFF2090EBAE885
:100110000F0013F0010F18BFFB1A43F0010318473B
:10012000581A0000781A0000103A24BF78C878C125
:10013000FAD8520724BF30C830C144BF04680C60ED
:10014000704700000023002400250026103A28BF35
:1001500078C1FBD8520728BF30C148BF0B60704739
:100160001FB51FBD10B510BD00F031F81146FFF7E7
:10017000F7FF01F0C7F800F04FF803B4FFF7F2FF04
:1001800003BC00F057F800000948804709480047C1
:10019000FEE7FEE7FEE7FEE7FEE7FEE7FEE7FEE737
:1001A000FEE7FEE704480549054A064B7047000094
:1001B000350E0008ED0000088800002088060020A9
:1001C00088020020880200207047704770477546FB
:1001D00000F02CF8AE4605006946534620F00700B3
:1001E000854618B020B5FFF7DDFFBDE820404FF091
:1001F00000064FF000074FF000084FF0000B21F011
:100200000701AC46ACE8C009ACE8C009ACE8C009DD
:10021000ACE8C0098D46704710B50446AFF30080C6
:100220002046BDE81040FFF7A8BF00000048704717
:100230002800002001491820ABBEFEE7260002007E
:10024000704700BFFEE7704710B5012000F050F87E
:1002500001280DD10221074800F0E9F828B9064825
:100260000088401E00B204490880012000F03AF8DE
:1002700010BD0000000C01400200002010B54FF43A
:10028000804000F035F801280DD18103064800F0C8
:10029000CEF820B905480088401C044908804FF476
:1002A000804000F01FF810BD000C0140000000204D
:1002B00010B5022000F01CF801280DD101210748DB
:1002C00000F0B5F828B906480088401C00B204497F
:1002D0000880022000F006F810BD0000000C01406C
:1002E000020000200149086070470000140401402A
:1002F000014600200022074B1B6803EA0102054B60
:1003000014331B680B4013B10AB1012000E0002038
:1003100070470000000401402DE9F041024600252D
:100320000026002000230024002791F803C00CF0D1
:100330000F0591F803C00CF0100CBCF1000F03D0B6
:1003400091F802C04CEA050591F800C0BCF1000F1D
:1003500031D0146800202BE04FF0010C0CFA00F3B0
:10036000B1F800C00CEA03069E4220D183004FF092
:100370000F0C0CFA03F7BC4305FA03FC4CEA040427
:1003800091F803C0BCF1280F06D14FF0010C0CFA14
:1003900000FCC2F814C00AE091F803C0BCF1480F99
:1003A00005D14FF0010C0CFA00FCC2F810C0401C43
:1003B0000828D1D31460B1F800C0BCF1FF0F34DDC0
:1003C000546800202EE000F1080C4FF0010808FAF4
:1003D0000CF3B1F800C00CEA03069E4221D1830061
:1003E0004FF00F0C0CFA03F7BC4305FA03FC4CEA80
:1003F000040491F803C0BCF1280F05D100F1080CEA
:1004000008FA0CF8C2F8148091F803C0BCF1480F48
:1004100007D100F1080C4FF0010808FA0CF8C2F8F7
:100420001080401C0828CED35460BDE8F0810246FD
:10043000002093680B400BB1012000E000207047C2
:1004400041617047016170470AB1016100E041619B
:10045000704700BFFEE7000010B5074800F0C8FD78
:10046000401C642100FB01F4034800F0BEFD401C69
:1004700094FBF0F010BD00000004004010B50448EB
:1004800000F0B3FD401C034991FBF0F010BD0000EB
:100490000004004040420F0000B587B00121022057
:1004A00000F030FC0121042000F03CFC4020ADF8BD
:1004B000180048208DF81B0003208DF81A0006A9AB
:1004C0001B48FFF729FF1B4800F0A6FD0020ADF8F0
:1004D0001200ADF80E004FF6FF70ADF81000472087
:1004E000ADF80C0000208DF8140003A9114800F0AD
:1004F0005BFE0020ADF80000ADF80200ADF806008C
:100500000120ADF804000F20ADF808006946094845
:1005100000F0DEFD5021074800F01BFE04210548D5
:1005200000F020FE0121034800F053FD07B000BD9C
:10053000000801400004004010B5044634B902210F
:100540001148FFF774FFE8B9012010BD012C06D156
:10055000E1020D48FFF76BFFA0B90120F5E7022C7F
:1005600006D121030848FFF762FF01280AD1ECE712
:10057000032C07D14FF400410348FFF758FF01282F
:1005800000D1E2E70020E0E7000C014008B50121BE
:10059000082000F0C7FB40F60200ADF8000048203C
:1005A0008DF8030003208DF8020069460848FFF724
:1005B000B3FE4FF42040ADF8000028208DF8030072
:1005C00003208DF8020069460148FFF7A5FE08BD2B
:1005D000000C014010B50020A349087016E0A348A4
:1005E000A149097830F8110000280ADD9F489E498A
:1005F000097830F81100401E9C499B4A127821F876
:10060000120099480078401C974908709648007875
:100610000428E4DB96480078401C95490870084699
:1006200000780A2871DB002008708F49087015E1F6
:1006300090488D490978415C8F488B4A12788154E3
:1006400089480078FFF778FF8A49874A12788854EA
:10065000084685490978405C01280AD187488249C3
:100660000978405C40F0010084497F4A1278885440
:1006700009E082487C490978405C20F001007F490C
:10068000794A127888547B4877490978405C012878
:100690000ED1794874490978405C48B97748724965
:1006A0000978405C40F0020174486F4A1278815426
:1006B00070486D490978405C78B96F486A49097893
:1006C000405C012809D16D4867490978405C40F0D9
:1006D00004016A48644A1278815469486249097879
:1006E000405C98B9634860490978405C01280BD1A7
:1006F0004FF47A705D495C4A127821F812000120AB
:100700005F49594A12788854A3E0ACE05C485649E6
:100710000978405C01282DD1564853490978405C3E
:1007200058B9C8205149504A127821F812000220C5
:1007300053494D4A127888548BE04C484A4909780D
:1007400030F81100002814D164204849464A127834
:1007500021F81200494844490978405C40F02000E3
:100760004649414A12788854042045493E4A127845
:1007700088546EE042483C490978405C02282BD1FD
:100780003C4839490978405C01280FD13B4836493B
:100790000978405C40F010003849334A1278885498
:1007A00003203749304A1278885452E02F482E49A6
:1007B000097830F81100F8B930482B490978405CC5
:1007C00040F008002D49284A1278885400202C490E
:1007D000254A127888543CE0294823490978405C2E
:1007E00003280AD1234820490978405C20B9002019
:1007F00023491D4A127888542BE021481A49097868
:10080000405C042825D11B4817490978405C28B969
:1008100000201B49144A127888541AE013481249E0
:10082000097830F81100A0B9642010490E4A1278F6
:1008300021F8120011480C490978405C40F0400052
:100840000E49094A1278885404200D49064A127844
:10085000885405480078401C034908700248007815
:100860000428FFF6E5AE10BD0A00002018000020A5
:10087000090000200B0000200F00002004000020D1
:100880001300002008B50121042000F04BFA0620D7
:10089000ADF8000010208DF8030003208DF8020051
:1008A00069460448FFF738FD06210248FFF7CAFDF4
:1008B00008BD00000008014010B50446012C04D119
:1008C00002210548FFF7BEFD05E0022C03D10421FB
:1008D0000148FFF7B7FD10BD0008014010B5044600
:1008E000012C04D102210548FFF7AAFD05E0022CE6
:1008F00003D104210148FFF7A3FD10BD000801400A
:1009000010B50E480078C0B10D480088401C0C4955
:10091000088008460088642190FBF1F201FB120078
:100920000749088008460088322803DA0120FFF7CB
:10093000D5FF02E00120FFF7BFFF10BD220000201D
:100940002000002000BFFEE7704770B500240EE0D5
:100950000021204600F0E1F8002504E0002000F02E
:1009600065F9681CC5B2802DF8DB601CC4B2082C88
:10097000EEDB70BD08B50121082000F0D3F914208A
:100980008DF8030003208DF802004FF48070ADF85D
:10099000000069460948FFF7BFFC4FF40070ADF84E
:1009A000000069460548FFF7B7FC012000F022F976
:1009B000012251020148FFF747FD08BD000C01402C
:1009C00070B50546002414E080202041284008B17D
:1009D000012000E0002002464FF400710948FFF7B3
:1009E00033FD012000F006F9002000F003F9601C3F
:1009F000C4B2082CE8DB012000F0FCF8002000F075
:100A0000F9F870BD000C014010B5012251020848F0
:100A1000FFF71AFD012000F0EDF800224FF40071FD
:100A20000348FFF711FD002000F0E4F810BD0000BE
:100A3000000C014010B500224FF400710548FFF78B
:100A400003FD012000F0D6F8012251020148FFF712
:100A5000FBFC10BD000C014070B5002406E0002531
:100A600000E06D1CB5F57A7FFBD3641CB4F57A7F8A
:100A7000F5D3FFF77FFFAE2000F0C8F8D52000F0D7
:100A8000C5F8E02000F0C2F8A82000F0BFF83F2031
:100A900000F0BCF8D32000F0B9F8002000F0B6F860
:100AA000402000F0B3F8A12000F0B0F8C82000F01A
:100AB000ADF8DA2000F0AAF8122000F0A7F88120A3
:100AC00000F0A4F8CF2000F0A1F8D92000F09EF8A3
:100AD000F12000F09BF8DB2000F098F8302000F0C7
:100AE00095F8A42000F092F8A62000F08FF88D2051
:100AF00000F08CF8142000F089F8AF2000F086F8A0
:100B0000FFF723FF70BD10B50246012000E05043FF
:100B10000B1EA1F10101FAD110BD70B505460C46BE
:100B200045F0B00000F072F8102141EA141000F016
:100B30006DF804F00F0000F069F870BD2DE9F04188
:100B400005460E461746721ED206110E6A1E520642
:100B5000100EFFF7E2FF002409E0A7F12001134A7D
:100B600002EB0111085D00F061F8601CC4B2082CB2
:100B7000F3DB721ED206110E6A1E012303EB420242
:100B8000D0B2FFF7CAFF00240BE0A7F12001074A0B
:100B900002EB011204F10801505C00F047F8601C00
:100BA000C4B2082CF1DBBDE8F08100004E13000850
:100BB0002DE9F04780460E4617461D46002415E0F5
:100BC000281B411E0A20FFF79EFFB7FBF0F00A2109
:100BD000B0FBF1F201FB120000F130093019C1B293
:100BE0004A464046FFF7AAFF601CC4B2AC42E7DBAE
:100BF000BDE8F08710B5044622464FF480710248E4
:100C0000FFF722FC10BD0000000C014010B50446A7
:100C1000FFF7FAFE7820FFF7D3FE0020FFF7D0FEA3
:100C20002046FFF7CDFEFFF705FF10BD10B50446C7
:100C3000FFF7EAFE7820FFF7C3FE4020FFF7C0FE73
:100C40002046FFF7BDFEFFF7F5FE10BD00B589B0E9
:100C50000121084600F056F80121042000F062F856
:100C60000120ADF8200018208DF8230003208DF816
:100C7000220008A91948FFF74FFB4FF0804000F011
:100C8000CBF90020ADF81A00ADF816006320ADF8DE
:100C9000180040F2CF20ADF8140000208DF81C00A1
:100CA00005A94FF0804000F07FFA01A800F006FA95
:100CB0006020ADF804000020ADF80C000120ADF874
:100CC00006003220ADF80A0001A9400700F0AAF999
:100CD0000121880700F07DF909B000BD000801403E
:100CE00010B5044621464FF0804000F044FA10BD94
:100CF00010B5044601222146900700F027FA10BDE6
:100D00007047000029B1064AD2690243044BDA61F8
:100D100004E0034AD2698243014BDA617047000064
:100D20000010024029B1064A92690243044B9A61BD
:100D300004E0034A92698243014B9A6170470000C4
:100D400000100240704710B500F002F810BD00001E
:100D50000CB50020019000903348006840F48030CA
:100D60003149086000BF3048006800F4003000904E
:100D70000198401C0190009818B90198B0F5A06F37
:100D8000F1D12948006800F4003010B10120009032
:100D900001E0002000900098012843D1234800681A
:100DA00040F01000214908600846006820F0030068
:100DB00008600846006840F0020008601A48406871
:100DC000194948600846406848600846406840F451
:100DD000806048600846406820F47C1048600846FF
:100DE000406840F4E81048600846006840F08070B1
:100DF000086000BF0C48006800F000700028F9D0BF
:100E00000948406820F003000749486008464068E8
:100E100040F00200486000BF0348406800F00C004A
:100E20000828F9D10CBD000000100240002002404B
:100E30007047000010B51348006840F001001149E8
:100E4000086008464068104908400E494860084656
:100E500000680E4908400B4908600846006820F405
:100E6000802008600846406820F4FE0048604FF487
:100E70001F008860FFF767FF4FF0006004490860BB
:100E800010BD0000001002400000FFF8FFFFF6FE5A
:100E900008ED00E0F0B50C46154600220021068C56
:100EA0004FF6FE773E400684028B018C4FF60C769F
:100EB00032407E1C06EA03162E433243104EB042E7
:100EC0000ED0104EB0420BD0B0F1804F08D00E4E75
:100ED000B04205D00D4EB04202D00D4EB04206D108
:100EE0004FF6FD76314044F00106314305E04FF600
:100EF000F576314044F00106314302830184F0BDB0
:100F0000002C014000340140000400400008004073
:100F1000000C0040F0B50C461546002200210026CA
:100F2000078C4FF6EF7C07EA0C070784028B018CD5
:100F30004FF6FF7707EA041640F6FF473A404FF6B0
:100F4000FF7707EA03373A434FF6FF7707EA0527AB
:100F50003A43114FB8420ED0104FB8420BD0B0F107
:100F6000804F08D00E4FB84205D00E4FB84202D085
:100F70000D4FB84206D14FF6DF77394046F01007E3
:100F8000394305E04FF65F77394044F010073943A5
:100F900002830184F0BD0000002C014000340140B8
:100FA0000004004000080040000C004010B5012182
:100FB000880700F020F8012807D1FFF70BFBFFF7A7
:100FC0009FFC0121880700F001F810BDCA4302828E
:100FD000704721B1028842F00102028004E00288D9
:100FE0004FF6FE731A40028070470146888E7047A4
:100FF0000146088F704730B50246002000230024C8
:10100000158A05EA0103958905EA010413B10CB1BB
:10101000012000E0002030BD01894FF6F872114038
:101020000181704770B5002400220023058C4FF623
:10103000FE7635400584028C8388048B4FF68F75CD
:101040002C40B51E2C400D882C43751E2A400D895E
:101050002A434D882A43144DA8420BD0134DA84271
:1010600008D0134DA84205D0124DA84202D0124D0F
:10107000A84213D14FF6F7752A404D892A434FF6FF
:10108000FB752A408D882A434FF6FF652B404FF6AB
:10109000FF552B408D892B43CD892B4383800483BF
:1010A000CD888586028470BD002C0140003401404B
:1010B00000400140004401400048014000210180FF
:1010C00041808180C180018141818181C1817047DE
:1010D0002DE9F04105460C4600260127608808B935
:1010E000022600E00026A088012801D1022700E0A6
:1010F00001272088A0B92389A28861882846FFF7A4
:10110000C9FEE188284600F038F823893A4631467E
:101110002846FFF7FFFEE188284600F037F813E085
:101120002389A28861882846FFF7F4FEE1882846D3
:1011300000F02CF823893A4631462846FFF7AAFEEC
:10114000E188284600F019F8BDE8F0810185828227
:1011500070470A46002101894FF68F7319401143E9
:101160000181704702894FF6F8731A4002810289A3
:101170000A430281704781867047028B4FF6F373F2
:101180001A400283028B0A4302837047028B4FF29C
:10119000FF331A400283028B4FF6FF7303EA0123E9
:1011A0001A43028370470000002202881D4B9842B8
:1011B0000ED01D4B98420BD0B0F1804F08D01B4B86
:1011C000984205D01A4B984202D01A4B984204D14B
:1011D0004FF68F731A404B881A43174B984207D02B
:1011E000164B984204D04FF6FF431A40CB881A435F
:1011F00002808B8883850B8803850A4B98420BD02D
:10120000094B984208D00E4B984205D00D4B98429E
:1012100002D00D4B984201D10B7A038601238382C1
:1012200070470000002C01400034014000040040E1
:1012300000080040000C0040001000400014004076
:1012400000400140004401400048014010B540F218
:101250002551094800F025F801280CD1064800F076
:101260004AF80649087001200549087040F22551E6
:10127000014800F007F810BD0038014023000020AD
:101280002400002010B50022002340F66A14A14279
:1012900000D100BF0A1201249440A3B2DC430480B1
:1012A00010BD70B50246002400230025002040F642
:1012B0006A16B14200D100BFC1F3421501F01F030D
:1012C000012606FA03F3012D02D19689334006E088
:1012D000022D02D1168A334001E0968A33400C1267
:1012E000012606FA04F41688344013B10CB101202B
:1012F00000E0002070BD01468888C0F308007047F8
:1013000000BFFEE7FFF7A8FBFFF7BCFAFFF73EF9C7
:10131000FFF79CFCFFF7C0F85820FFF7E1FC40F214
:10132000CF20FFF7E5FC11E0FFF796F80446052310
:10133000224601210846FFF73BFCFFF79FF80446D1
:101340000523224601210220FFF732FCECE70000D2
:10135000000000000000000000000000000000008D
:1013600000F8000000000000003330000000001012
:101370000C06100C0600000000000000000040C039
:101380007840C0784000043F04043F04040000702B
:1013900088FC08300000001820FF211E0000F00823
:1013A000F000E018000000211C031E211E0000F0C8
:1013B0000888700000001E21232419272110101610
:1013C0000E0000000000000000000000000000000F
:1013D00000E018040200000000071820400000028E
:1013E0000418E00000000040201807000000404002
:1013F00080F0804040000202010F01020200000064
:1014000000F0000000000101011F010101000000C7
:1014100000000000000080B070000000000000002C
:1014200000000000000000010101010101010000B5
:10143000000000000000003030000000000000004C
:10144000000080601804006018060100000000E041
:1014500010080810E000000F102020100F000010EE
:1014600010F8000000000020203F20200000007045
:10147000080808887000003028242221300000303D
:101480000888884830000018202020110E00000035
:10149000C02010F8000000070424243F240000F8B6
:1014A0000888880808000019212020110E0000E09B
:1014B000108888180000000F112020110E0000383D
:1014C0000808C83808000000003F00000000007055
:1014D000880808887000001C222121221C0000E0DE
:1014E00010080810E0000000312222110F00000057
:1014F00000C0C0000000000000303000000000000C
:10150000008000000000000080600000000000007B
:101510008040201008000001020408102000404014
:101520004040404040000404040404040400000857
:10153000102040800000002010080402010000700C
:1015400048080808F0000000003036010000C030F4
:10155000C828E810E0000718272423140B00000017
:10156000C038E0000000203C23020227382008F8A1
:10157000888888700000203F202020110E00C03095
:10158000080808083800071820202010080008F86C
:1015900008080810E000203F202020100F0008F865
:1015A0008888E8081000203F20202320180008F831
:1015B0008888E8081000203F200003000000C030A9
:1015C00008080838000007182020221E020008F82A
:1015D00008000008F808203F210101213F200008F1
:1015E00008F8080800000020203F2020000000002C
:1015F0000808F8080800C08080807F00000008F814
:1016000088C028180800203F20012638200008F84C
:10161000080000000000203F20202020300008F8B3
:10162000F800F8F80800203F003F003F200008F8CD
:1016300030C00008F808203F200007183F00E010E5
:1016400008080810E0000F10202020100F0008F8F4
:1016500008080808F000203F210101010000E01007
:1016600008080810E0000F18242438504F0008F82C
:10167000888888887000203F2000030C302000708C
:101680008808080838000038202121221C0018088A
:1016900008F8080818000000203F2000000008F8A3
:1016A00008000008F808001F202020201F000878EC
:1016B000880000C83808000007380E010000F8084C
:1016C00000F80008F800033C0700073C0300081876
:1016D00068808068180820302C03032C30200838DC
:1016E000C800C83808000000203F20000000100893
:1016F0000808C838080020382621202018000000DB
:1017000000FE020202000000007F40404000000C8A
:1017100030C000000000000000010638C0000002D8
:101720000202FE000000004040407F000000000078
:10173000040202020400000000000000000000009B
:101740000000000000008080808080808080000297
:101750000204000000000000000000000000000083
:101760008080808000000019242222223F2008F877
:10177000008080000000003F112020110E000000BA
:10178000008080800000000E112020201100000049
:1017900000808088F800000E112020103F200000FB
:1017A000808080800000001F2222222213000080FF
:1017B00080F0888888180020203F2020000000004A
:1017C000808080808000006B94949493600008F87F
:1017D000008080800000203F210000203F2000800A
:1017E0009898000000000020203F2020000000000A
:1017F00000809898000000C08080807F000008F87A
:10180000000080808000203F24022D30200000084E
:1018100008F8000000000020203F20200000808009
:10182000808080808000203F20003F20003F80801B
:10183000008080800000203F210000203F20000029
:10184000808080800000001F202020201F008080DA
:1018500000808000000080FFA12020110E00000009
:10186000008080808000000E112020A0FF808080FA
:1018700080008080800020203F21200001000000A7
:10188000808080808000003324242424190000807C
:1018900080E0808000000000001F20200000808089
:1018A000000000808000001F202020103F2080804A
:1018B00080000080808000010E30080601008080DA
:1018C0000080008080800F300C030C300F000080FF
:1018D0008000808080000020312E0E31200080802A
:1018E00080000080808080818E701806010000805A
:1018F0008080808080000021302C22213000000078
:101900000000807C020200000000003F4040000018
:101910000000FF00000000000000FF0000000002C7
:10192000027C800000000040403F000000000006F4
:101930000101020204040000000000000000000099
:10194000000000000000002F00000000070007005A
:1019500000147F147F1400242A7F2A120023130806
:101960006462003649552250000000070000000064
:101970001C224100000041221C000014083E0814F3
:101980000008083E0808000000A0600000080808E1
:101990000808000060600000002010080402003EFB
:1019A0005149453E0000427F400000426151494696
:1019B000002141454B31001814127F100027454586
:1019C0004539003C4A494930000171090503003698
:1019D0004949493600064949291E000036360000AB
:1019E00000005636000000081422410000141414B0
:1019F0001414000041221408000201510906003E9F
:101A00004955592E007C1211127C007F49494936F4
:101A1000003E41414122007F4141221C007F494953
:101A20004941007F09090901003E4149497A007F87
:101A30000808087F0000417F4100002040413F012D
:101A4000007F08142241007F40404040007F020C8C
:101A5000027F007F0408107F003E4141413E007F2D
:101A600009090906003E4151215E007F09192946F6
:101A70000046494949310001017F0101003F4040D2
:101A8000403F001F2040201F003F4038403F006380
:101A900014081463000708700807006151494543A2
:101AA00000007F4141000002040810200000414175
:101AB0007F0000040201020400404040404000005A
:101AC00001020400002054545478007F48444438F4
:101AD00000384444442000384444487F003854547B
:101AE000541800087E0901020018A4A4A47C007FF9
:101AF000080404780000447D4000004080847D009C
:101B0000007F102844000000417F4000007C041842
:101B10000478007C0804047800384444443800FC0D
:101B2000242424180018242418FC007C0804040829
:101B300000485454542000043F444020003C40409E
:101B4000207C001C2040201C003C4030403C0044D5
:101B500028102844001CA0A0A07C004464544C44DD
:101B60000000087F41000000007F00000000417F6E
:101B70000800000804081008981B00080000002056
:101B80002800000028010008C01B000828000020D1
:101B90006006000044010008000000000000000092
:101BA0000000000000000000000000000000000035
:101BB0000000000000000000000000000000000025
:04000005080000ED02
:00000001FF
