:020000040800F2
:100000006809002089010008D104000833040008B1
:10001000CD040008430200083D0A0008000000006B
:10002000000000000000000000000000C9070008F8
:100030004702000800000000A5070008B5080008F6
:10004000A3010008A3010008A3010008A301000800
:10005000A3010008A3010008A3010008A3010008F0
:10006000A3010008A3010008A3010008A3010008E0
:10007000A3010008A3010008A3010008A3010008D0
:10008000A3010008A3010008A3010008A3010008C0
:10009000A3010008A3010008A3010008A3010008B0
:1000A000A3010008A3010008A3010008A3010008A0
:1000B000A3010008A3010008A3010008A301000890
:1000C000A3010008A3010008A3010008A301000880
:1000D000A301000819090008A3010008A3010008F2
:1000E00091020008A3010008A301000800F002F833
:1000F00000F03AF80AA090E8000C82448344AAF188
:100100000107DA4501D100F02FF8AFF2090EBAE885
:100110000F0013F0010F18BFFB1A43F0010318473B
:10012000A4110000C4110000103A24BF78C878C19F
:10013000FAD8520724BF30C830C144BF04680C60ED
:10014000704700000023002400250026103A28BF35
:1001500078C1FBD8520728BF30C148BF0B60704739
:100160001FB51FBD10B510BD00F031F81146FFF7E7
:10017000F7FF00F065FC00F04FF803B4FFF7F2FF63
:1001800003BC00F057F800000948804709480047C1
:10019000FEE7FEE7FEE7FEE7FEE7FEE7FEE7FEE737
:1001A000FEE7FEE704480549054A064B7047000094
:1001B000B9080008ED000008680300206809002065
:1001C0006805002068050020704770477047754635
:1001D00000F02CF8AE4605006946534620F00700B3
:1001E000854618B020B5FFF7DDFFBDE820404FF091
:1001F00000064FF000074FF000084FF0000B21F011
:100200000701AC46ACE8C009ACE8C009ACE8C009DD
:10021000ACE8C0098D46704710B50446AFF30080C6
:100220002046BDE81040FFF7A8BF00000048704717
:100230000803002001491820ABBEFEE7260002009B
:10024000704700BFFEE7704700B5034603E04FF478
:100250007A7000F005F8181EA3F10103F7D100BD74
:1002600000EBC001C9004FF0E02251610021916113
:100270000521116100BF4FF0E021096901F48031CF
:100280000029F8D004214FF0E022116170470000EE
:1002900010B54FF4804000F01BF801280DD1810308
:1002A000064800F0B4F820B905480088401C04490D
:1002B00008804FF4804000F005F810BD000C0140AC
:1002C000000000200149086070470000140401404C
:1002D000014600200022074B1B6803EA0102054B80
:1002E00014331B680B4013B10AB1012000E0002059
:1002F00070470000000401402DE9F041024600254E
:100300000026002000230024002791F803C00CF0F1
:100310000F0591F803C00CF0100CBCF1000F03D0D6
:1003200091F802C04CEA050591F800C0BCF1000F3D
:1003300031D0146800202BE04FF0010C0CFA00F3D0
:10034000B1F800C00CEA03069E4220D183004FF0B2
:100350000F0C0CFA03F7BC4305FA03FC4CEA040447
:1003600091F803C0BCF1280F06D14FF0010C0CFA34
:1003700000FCC2F814C00AE091F803C0BCF1480FB9
:1003800005D14FF0010C0CFA00FCC2F810C0401C63
:100390000828D1D31460B1F800C0BCF1FF0F34DDE0
:1003A000546800202EE000F1080C4FF0010808FA14
:1003B0000CF3B1F800C00CEA03069E4221D1830081
:1003C0004FF00F0C0CFA03F7BC4305FA03FC4CEAA0
:1003D000040491F803C0BCF1280F05D100F1080C0A
:1003E00008FA0CF8C2F8148091F803C0BCF1480F69
:1003F00007D100F1080C4FF0010808FA0CF8C2F818
:100400001080401C0828CED35460BDE8F08102461D
:10041000002093680B400BB1012000E000207047E2
:1004200041617047016170470AB1016100E04161BB
:10043000704700BFFEE7000008B50121042000F06E
:10044000B3F910208DF803000720ADF80000032059
:100450008DF8020069460448FFF74EFF0721024865
:10046000FFF7DEFF08BD00000008014010B504469C
:1004700024B104210448FFF7D5FF03E0042102481A
:10048000FFF7CEFF10BD00000008014010B5044684
:1004900024B102210448FFF7C5FF03E0022102480E
:1004A000FFF7BEFF10BD00000008014010B5044674
:1004B00024B101210448FFF7B5FF03E00121024800
:1004C000FFF7AEFF10BD00000008014000BFFEE7CF
:1004D000704770B500240EE00021204600F0D7F8E8
:1004E000002504E0002000F04DF9681CC5B2802D05
:1004F000F8DB601CC4B2082CEEDB70BD08B501212E
:10050000082000F051F914208DF8030003208DF825
:1005100002004FF48070ADF8000069460948FFF70B
:10052000EBFE4FF40070ADF8000069460548FFF798
:10053000E3FE012000F00AF9012251020148FFF711
:1005400073FF08BD000C014070B50546002414E09F
:1005500080202041284008B1012000E00020024610
:100560004FF400710948FFF75FFF012000F0EEF83B
:10057000002000F0EBF8601CC4B2082CE8DB01207E
:1005800000F0E4F8002000F0E1F870BD000C01403C
:1005900010B5012251020848FFF746FF012000F084
:1005A000D5F800224FF400710348FFF73DFF00200B
:1005B00000F0CCF810BD0000000C014010B5002286
:1005C0004FF400710548FFF72FFF012000F0BEF83F
:1005D000012251020148FFF727FF10BD000C014026
:1005E00070B5002406E0002500E06D1CB5F57A7FAB
:1005F000FBD3641CB4F57A7FF5D3FFF77FFFAE2001
:1006000000F0B0F8D52000F0ADF8E02000F0AAF836
:10061000A82000F0A7F83F2000F0A4F8D32000F0B5
:10062000A1F8002000F09EF8402000F09BF8A120E7
:1006300000F098F8C82000F095F8DA2000F092F861
:10064000122000F08FF8812000F08CF8CF2000F00D
:1006500089F8D92000F086F8F12000F083F8DB203B
:1006600000F080F8302000F07DF8A42000F07AF847
:10067000A62000F077F88D2000F074F8142000F028
:1006800071F8AF2000F06EF8FFF723FF70BD70B572
:1006900005460C4645F0B00000F064F8102141EA30
:1006A000141000F05FF804F00F0000F05BF870BD6C
:1006B0002DE9F04105460E461746721ED206110E70
:1006C0006A1E5206100EFFF7E2FF002409E0A7F1B0
:1006D0002001134A02EB0111085D00F053F8601C81
:1006E000C4B2082CF3DB721ED206110E6A1E01235F
:1006F00003EB4202D0B2FFF7CAFF00240BE0A7F1E0
:100700002001074A02EB011204F10801505C00F0DD
:1007100039F8601CC4B2082CF1DBBDE8F0810000A0
:10072000980A00082DE9F04107460E4615460024B8
:1007300007E02A5D3019C1B23846FFF7B9FF601CE7
:10074000C4B2285D0028F4D1BDE8F08110B504469C
:1007500022464FF480710248FFF766FE10BD00008C
:10076000000C014010B50446FFF712FF7820FFF798
:10077000EBFE0020FFF7E8FE2046FFF7E5FEFFF75F
:100780001DFF10BD10B50446FFF702FF7820FFF7EC
:10079000DBFE4020FFF7D8FE2046FFF7D5FEFFF72F
:1007A0000DFF10BD7047000029B1064A926902434F
:1007B000044B9A6104E0034A92698243014B9A61B7
:1007C0007047000000100240704710B500F002F8BA
:1007D00010BD00000CB50020019000903348006867
:1007E00040F480303149086000BF3048006800F4B0
:1007F000003000900198401C0190009818B90198B1
:10080000B0F5A06FF1D12948006800F4003010B1B4
:100810000120009001E0002000900098012843D1C1
:100820002348006840F0100021490860084600682D
:1008300020F0030008600846006840F002000860ED
:100840001A484068194948600846406848600846A8
:10085000406840F4806048600846406820F47C109E
:1008600048600846406840F4E81048600846006860
:1008700040F08070086000BF0C48006800F0007015
:100880000028F9D00948406820F003000749486073
:100890000846406840F00200486000BF03484068D6
:1008A00000F00C000828F9D10CBD00000010024037
:1008B000002002407047000010B51348006840F067
:1008C00001001149086008464068104908400E4977
:1008D0004860084600680E4908400B490860084611
:1008E000006820F4802008600846406820F4FE007C
:1008F00048604FF41F008860FFF767FF4FF000600B
:100900000449086010BD0000001002400000FFF81C
:10091000FFFFF6FE08ED00E010B540F22551224839
:1009200000F05DF801283DD11F4800F082F8C4B204
:100930001E48007840B9402C2ED101201B49087078
:1009400000201B49087027E01848007801280ED1C4
:100950000D2C03D10220154908701DE014480178C0
:100960000078401C124A10701248445414E00F489A
:100970000078022810D10A2C0ED100200B490870F3
:1009800001200D4908700022094801780078401CB8
:10099000074B18700948425440F22551024800F0B4
:1009A0000FF800BF10BD0000003801400400002017
:1009B000050000200802002003000020080100209C
:1009C00010B50022002340F66A14A14200D100BFF6
:1009D0000A1201249440A3B2DC43048010BD70B518
:1009E0000246002400230025002040F66A16B1428A
:1009F00000D100BFC1F3421501F01F03012606FA22
:100A000003F3012D02D19689334006E0022D02D175
:100A1000168A334001E0968A33400C12012606FA0A
:100A200004F41688344013B10CB1012000E000201A
:100A300070BD01468888C0F30800704700BFFEE71C
:100A4000FFF7FAFCFFF7CCFDFFF743FDFFF741FD91
:100A50000DA201210846FFF765FE14E00020FFF714
:100A600025FD4FF4FA70FFF7EFFB0020FFF70EFDB6
:100A70004FF4FA70FFF7E8FB0120FFF7F7FC4FF4A3
:100A8000FA70FFF7E1FBE9E748656C6C6F20576F80
:100A9000726C6421000000000000000000000000F3
:100AA0000000000000000000000000F8000000004E
:100AB000000000333000000000100C06100C06008F
:100AC000000000000000000040C07840C0784000F6
:100AD000043F04043F040400007088FC0830000058
:100AE000001820FF211E0000F008F000E0180000B0
:100AF00000211C031E211E0000F008887000000069
:100B00001E2123241927211010160E0000000000BA
:100B10000000000000000000000000E018040200D7
:100B2000000000071820400000020418E000000048
:100B30000040201807000000404080F08040400046
:100B40000202010F01020200000000F0000000009C
:100B50000101011F01010100000000000000000070
:100B600080B07000000000000000000000000000E5
:100B7000000101010101010100000000000000006E
:100B80000030300000000000000000008060180409
:100B9000006018060100000000E010080810E000E6
:100BA000000F102020100F00001010F800000000AF
:100BB0000020203F202000000070080808887000F6
:100BC0000030282422213000003008888848300076
:100BD0000018202020110E000000C02010F8000096
:100BE00000070424243F240000F80888880808002F
:100BF0000019212020110E0000E010888818000044
:100C0000000F112020110E0000380808C838080015
:100C10000000003F00000000007088080888700095
:100C2000001C222121221C0000E010080810E00016
:100C30000000312222110F00000000C0C00000009F
:100C400000000030300000000000008000000000C4
:100C500000008060000000000000804020100800BC
:100C60000001020408102000404040404040400085
:100C70000404040404040400000810204080000060
:100C80000020100804020100007048080808F00065
:100C90000000003036010000C030C828E810E00035
:100CA0000718272423140B000000C038E0000000C0
:100CB000203C23020227382008F88888887000002A
:100CC000203F202020110E00C030080808083800FE
:100CD000071820202010080008F808080810E00075
:100CE000203F202020100F0008F88888E808100016
:100CF000203F20202320180008F88888E8081000EA
:100D0000203F200003000000C03008080838000021
:100D100007182020221E020008F808000008F80822
:100D2000203F210101213F20000808F808080000A9
:100D30000020203F2020000000000808F8080800DC
:100D4000C08080807F00000008F888C02818080054
:100D5000203F20012638200008F80800000000008D
:100D6000203F20202020300008F8F800F8F8080084
:100D7000203F003F003F200008F830C00008F8087E
:100D8000203F200007183F00E01008080810E0008E
:100D90000F10202020100F0008F808080808F000A5
:100DA000203F210101010000E01008080810E000C8
:100DB0000F18242438504F0008F88888888870005D
:100DC000203F2000030C30200070880808083800FD
:100DD0000038202121221C00180808F808081800F3
:100DE0000000203F2000000008F808000008F80874
:100DF000001F202020201F000878880000C8380825
:100E0000000007380E010000F80800F80008F8009C
:100E1000033C0700073C0300081868808068180836
:100E200020302C03032C30200838C800C8380800B4
:100E30000000203F2000000010080808C838080003
:100E40002038262120201800000000FE02020200A7
:100E50000000007F40404000000C30C00000000057
:100E6000000000010638C00000020202FE0000007F
:100E7000004040407F000000000004020202040025
:100E80000000000000000000000000000000000062
:100E9000808080808080808000020204000000004A
:100EA0000000000000000000000080808080000042
:100EB0000019242222223F2008F800808000000030
:100EC000003F112020110E000000008080800000F3
:100ED000000E112020201100000000808088F80002
:100EE000000E112020103F20000080808080000034
:100EF000001F222222221300008080F08888881898
:100F00000020203F202000000000808080808000A2
:100F1000006B94949493600008F800808080000037
:100F2000203F210000203F20008098980000000012
:100F30000020203F20200000000000809898000042
:100F400000C08080807F000008F800008080800062
:100F5000203F24022D302000000808F80000000087
:100F60000020203F20200000808080808080800042
:100F7000203F20003F20003F8080008080800000D4
:100F8000203F210000203F20000080808080000062
:100F9000001F202020201F00808000808000000093
:100FA00080FFA12020110E000000008080808000C2
:100FB000000E112020A0FF808080800080808000B3
:100FC00020203F21200001000000808080808000E0
:100FD0000033242424241900008080E08080000055
:100FE0000000001F202000008080000000808000A2
:100FF000001F202020103F20808080000080808003
:1010000000010E3008060100808000800080808092
:101010000F300C030C300F000080800080808000B7
:101020000020312E0E3120008080800000808080E2
:1010300080818E7018060100008080808080800092
:101040000021302C2221300000000000807C0202B0
:1010500000000000003F404000000000FF000000D2
:1010600000000000FF0000000002027C8000000081
:101070000040403F0000000000060101020204049D
:101080000000000000000000000000000000000060
:10109000002F000000000700070000147F147F14D9
:1010A00000242A7F2A12002313086462003649555F
:1010B000225000000007000000001C224100000038
:1010C00041221C000014083E08140008083E0808CD
:1010D000000000A060000008080808080000606028
:1010E0000000002010080402003E5149453E000067
:1010F000427F4000004261514946002141454B3149
:10110000001814127F10002745454539003C4A4914
:101110004930000171090503003649494936000686
:101120004949291E000036360000000056360000EE
:101130000008142241000014141414140000412269
:101140001408000201510906003E4955592E007C41
:101150001211127C007F49494936003E414141222B
:10116000007F4141221C007F49494941007F090914
:101170000901003E4149497A007F0808087F0000C4
:10118000417F4100002040413F01007F081422417F
:10119000007F40404040007F020C027F007F040837
:1011A000107F003E4141413E007F09090906003E93
:1011B0004151215E007F09192946004649494931BC
:1011C0000001017F0101003F4040403F001F2040DF
:1011D000201F003F4038403F00631408146300079D
:1011E0000870080700615149454300007F414100F4
:1011F000000204081020000041417F0000040201A9
:101200000204004040404040000001020400002071
:1012100054545478007F48444438003844444420AF
:1012200000384444487F00385454541800087E095C
:1012300001020018A4A4A47C007F08040478000024
:10124000447D4000004080847D00007F10284400E1
:101250000000417F4000007C04180478007C0804F2
:10126000047800384444443800FC2424241800182E
:10127000242418FC007C080404080048545454201A
:1012800000043F444020003C4040207C001C2040A3
:10129000201C003C4030403C004428102844001CE6
:1012A000A0A0A07C004464544C440000087F41008E
:1012B0000000007F00000000417F080000080408D3
:1012C00010080000E41200080000002008000000E0
:1012D00028010008EC120008080000206009000046
:0C12E000440100080000000000000000B5
:04000005080000ED02
:00000001FF
